:020000040800F2
:1000000000400120353300089D150008A3150008A5
:10001000A9150008AF150008B5150008000000007C
:10002000000000000000000000000000BB150008F8
:10003000C715000800000000D3150008DF150008F0
:100040007D3300087D3300087D3300087D330008D0
:100050007D3300087D3300087D3300087D330008C0
:100060007D3300087D3300087D3300087D330008B0
:100070007D3300087D3300087D3300087D330008A0
:100080007D3300087D3300087D3300087D33000890
:100090007D3300087D3300087D3300087D33000880
:1000A0007D3300087D3300087D3300087D33000870
:1000B0007D3300087D3300087D3300087D33000860
:1000C0007D3300087D3300087D3300087D33000850
:1000D0007D3300087D3300087D3300087D33000840
:1000E0007D3300087D3300087D3300087D33000830
:1000F0007D330008000000007D3300087D330008D8
:100100007D3300087D3300087D3300087D3300080F
:100110007D3300087D3300087D33000800000000B7
:100120007D33000800000000000000000000000017
:0C01300000000000000000005FF808F173
:10013C0010B5054C237833B9044B13B10448AFF315
:10014C0000800123237010BD70000020000000000F
:10015C003C3C000808B5034B1BB103490348AFF303
:10016C00008008BD00000000740000203C3C00082A
:10017C0081F0004102E000BF83F0004330B54FEA4C
:10018C0041044FEA430594EA050F08BF90EA020FB9
:10019C001FBF54EA000C55EA020C7FEA645C7FEA4C
:1001AC00655C00F0E2804FEA5454D4EB5555B8BF6F
:1001BC006D420CDD2C4480EA020281EA030382EAE0
:1001CC00000083EA010180EA020281EA0303362D72
:1001DC0088BF30BD11F0004F4FEA01314FF4801C45
:1001EC004CEA113102D0404261EB410113F0004F57
:1001FC004FEA03334CEA133302D0524263EB43030E
:10020C0094EA050F00F0A780A4F10104D5F1200EAB
:10021C000DDB02FA0EFC22FA05F2801841F1000106
:10022C0003FA0EF2801843FA05F359410EE0A5F1DA
:10023C0020050EF1200E012A03FA0EFC28BF4CF00B
:10024C00020C43FA05F3C01851EBE37101F00045C1
:10025C0007D54FF0000EDCF1000C7EEB00006EEBCE
:10026C000101B1F5801F1BD3B1F5001F0CD3490858
:10027C005FEA30004FEA3C0C04F101044FEA4452AF
:10028C0012F5800F80F09A80BCF1004F08BF5FEA36
:10029C00500C50F1000041EB045141EA050130BD16
:1002AC005FEA4C0C404141EB010111F4801FA4F1B9
:1002BC000104E9D191F0000F04BF01460020B1FA0E
:1002CC0081F308BF2033A3F10B03B3F120020CDA46
:1002DC000C3208DD02F1140CC2F10C0201FA0CF024
:1002EC0021FA02F10CE002F11402D8BFC2F1200C89
:1002FC0001FA02F120FA0CFCDCBF41EA0C0190403F
:10030C00E41AA2BF01EB0451294330BD6FEA040487
:10031C001F3C1CDA0C340EDC04F11404C4F1200272
:10032C0020FA04F001FA02F340EA030021FA04F384
:10033C0045EA030130BDC4F10C04C4F1200220FADB
:10034C0002F001FA04F340EA0300294630BD21FA19
:10035C0004F0294630BD94F0000F83F4801306BFDF
:10036C0081F480110134013D4EE77FEA645C18BFD3
:10037C007FEA655C29D094EA050F08BF90EA020F6A
:10038C0005D054EA000C04BF1946104630BD91EA62
:10039C00030F1EBF0021002030BD5FEA545C05D165
:1003AC004000494128BF41F0004130BD14F58004A4
:1003BC003CBF01F5801130BD01F0004545F0FE4118
:1003CC0041F470014FF0000030BD7FEA645C1ABF4D
:1003DC00194610467FEA655C1CBF0B46024650EA84
:1003EC00013406BF52EA033591EA030F41F40021B0
:1003FC0030BD00BF90F0000F04BF0021704730B536
:10040C004FF4806404F132044FF000054FF000010A
:10041C0050E700BF90F0000F04BF0021704730B5CB
:10042C004FF4806404F1320410F0004548BF4042A0
:10043C004FF000013EE700BF42004FEAE2014FEAF5
:10044C0031014FEA02701FBF12F07F4393F07F4FD0
:10045C0081F06051704792F0000F14BF93F07F4F02
:10046C00704730B54FF4607401F0004521F0004145
:10047C0020E700BF50EA010208BF704730B54FF0CB
:10048C0000050AE050EA010208BF704730B511F0D0
:10049C00004502D5404261EB41014FF4806404F108
:1004AC0032045FEA915C3FF4DCAE4FF003025FEA8A
:1004BC00DC0C18BF03325FEADC0C18BF033202EB12
:1004CC00DC02C2F1200300FA03FC20FA02F001FA6C
:1004DC0003FE40EA0E0021FA02F11444C1E600BF0B
:1004EC0070B54FF0FF0C4CF4E06C1CEA11541DBFBE
:1004FC001CEA135594EA0C0F95EA0C0F00F0DEF889
:10050C002C4481EA030621EA4C5123EA4C5350EA6D
:10051C00013518BF52EA033541F4801143F48013BE
:10052C0038D0A0FB02CE4FF00005E1FB02E506F04F
:10053C000042E0FB03E54FF00006E1FB03569CF0A4
:10054C00000F18BF4EF0010EA4F1FF04B6F5007FAA
:10055C0064F5407404D25FEA4E0E6D4146EB06061C
:10056C0042EAC62141EA55514FEAC52040EA5E50A5
:10057C004FEACE2EB4F1FD0C88BFBCF5E06F1ED84F
:10058C00BEF1004F08BF5FEA500E50F1000041EB86
:10059C00045170BD06F0004646EA010140EA020033
:1005AC0081EA0301B4EB5C04C2BFD4EB0C0541EA55
:1005BC00045170BD41F480114FF0000E013C00F36A
:1005CC00AB8014F1360FDEBF002001F0004170BD8E
:1005DC00C4F10004203C35DA0C341BDC04F11404A7
:1005EC00C4F1200500FA05F320FA04F001FA05F233
:1005FC0040EA020001F0004221F0004110EBD37000
:10060C0021FA04F642EB06015EEA430E08BF20EA2B
:10061C00D37070BDC4F10C04C4F1200500FA04F3CE
:10062C0020FA05F001FA04F240EA020001F0004160
:10063C0010EBD37041F100015EEA430E08BF20EAD3
:10064C00D37070BDC4F1200500FA05F24EEA020E1B
:10065C0020FA04F301FA05F243EA020321FA04F04A
:10066C0001F0004121FA04F220EA020000EBD37001
:10067C005EEA430E08BF20EAD37070BD94F0000F01
:10068C000FD101F00046400041EB010111F4801F35
:10069C0008BF013CF7D041EA060195F0000F18BFE6
:1006AC00704703F00046520043EB030313F4801F22
:1006BC0008BF013DF7D043EA0603704794EA0C0FDC
:1006CC000CEA135518BF95EA0C0F0CD050EA4106F2
:1006DC0018BF52EA4306D1D181EA030101F000416F
:1006EC004FF0000070BD50EA410606BF1046194697
:1006FC0052EA430619D094EA0C0F02D150EA0136A3
:10070C0013D195EA0C0F05D152EA03361CBF1046E3
:10071C0019460AD181EA030101F0004141F0FE4182
:10072C0041F470014FF0000070BD41F0FE4141F406
:10073C00780170BD70B54FF0FF0C4CF4E06C1CEA06
:10074C0011541DBF1CEA135594EA0C0F95EA0C0FBB
:10075C0000F0A7F8A4EB050481EA030E52EA033576
:10076C004FEA013100F088804FEA03334FF0805597
:10077C0045EA131343EA12634FEA022245EA1115C4
:10078C0045EA10654FEA00260EF000419D4208BF75
:10079C00964244F1FD0404F5407402D25B084FEA22
:1007AC003202B61A65EB03055B084FEA32024FF4CE
:1007BC0080104FF4002CB6EB020E75EB030E22BF2B
:1007CC00B61A754640EA0C005B084FEA3202B6EBEB
:1007DC00020E75EB030E22BFB61A754640EA5C009A
:1007EC005B084FEA3202B6EB020E75EB030E22BF2A
:1007FC00B61A754640EA9C005B084FEA3202B6EB2B
:10080C00020E75EB030E22BFB61A754640EADC00E9
:10081C0055EA060E18D04FEA051545EA16754FEA4B
:10082C0006164FEAC30343EA52734FEAC2025FEA69
:10083C001C1CC0D111F4801F0BD141EA00014FF0F8
:10084C0000004FF0004CB6E711F4801F04BF0143C9
:10085C000020B4F1FD0C88BFBCF5E06F3FF6AFAEE5
:10086C00B5EB030C04BFB6EB020C5FEA500C50F175
:10087C00000041EB045170BD0EF0004E4EEA1131F8
:10088C0014EB5C04C2BFD4EB0C0541EA045170BDFF
:10089C0041F480114FF0000E013C90E645EA060E43
:1008AC008DE60CEA135594EA0C0F08BF95EA0C0F71
:1008BC003FF43BAF94EA0C0F0AD150EA01347FF4B9
:1008CC0034AF95EA0C0F7FF425AF104619462CE790
:1008DC0095EA0C0F06D152EA03353FF4FDAE1046F3
:1008EC00194622E750EA410618BF52EA43067FF444
:1008FC00C5AE50EA41047FF40DAF52EA43057FF4D4
:10090C00EBAE12E74FEA4102B2F1E04324BFB3F57C
:10091C00001CDCF1FE5C0DD901F0004C4FEAC0026A
:10092C004CEA5070B2F1004F40EB830008BF20F04E
:10093C000100704711F0804F21D113F13872BCBF08
:10094C0001F00040704741F480114FEA5252C2F15D
:10095C001802C2F1200C10FA0CF320FA02F018BFA6
:10096C0040F001004FEAC1234FEAD32303FA0CFCF9
:10097C0040EA0C0023FA02F34FEA4303CCE77FEA88
:10098C00625307D150EA01331EBF4FF0FE4040F4D2
:10099C004000704701F0004040F0FE4040F4000081
:1009AC00704700BF53B94AB9002908BF00281CBFC3
:1009BC004FF0FF314FF0FF3000F07AB9ADF1080C79
:1009CC006DE904CE00F006F8DDF804E0DDE9022361
:1009DC0004B070472DE9F0478C460E460446089D3E
:1009EC00002B50D18A4217466CD9B2FA82FEBEF166
:1009FC00000F0BD0CEF1200C01FA0EF620FA0CFCF5
:100A0C0002FA0EF74CEA060C00FA0EF43A0CBCFB98
:100A1C00F2F9BBB202FB19CC09FB03FA4FEA1448FA
:100A2C0048EA0C46B2450AD9F61909F1FF3180F0B3
:100A3C002581B24540F22281A9F102093E44A6EB80
:100A4C000A06B6FBF2F002FB106600FB03F3A4B23D
:100A5C0044EA0644A34209D9E41900F1FF3280F0BC
:100A6C000B81A34240F2088102383C440021E41A75
:100A7C0040EA0940002D62D0002324FA0EF42C60C9
:100A8C006B60BDE8F0878B4207D9002D55D0002153
:100A9C0085E841000846BDE8F087B3FA83F10029E8
:100AAC0040F08F80B34202D3824200F2FC80841A61
:100ABC0066EB03060120B446002D40D085E81010EB
:100ACC00BDE8F08712B90127B7FBF2F7B7FA87FE3A
:100ADC00BEF1000F35D10121F61B4FEA174C1FFA5E
:100AEC0087F8B6FBFCF20CFB126608FB02F0230C39
:100AFC0043EA0646B04207D9F61902F1FF3302D297
:100B0C00B04200F2D2801A46361AB6FBFCF00CFB4F
:100B1C00106608FB00F8A3B243EA0644A04507D9C7
:100B2C00E41900F1FF3302D2A04500F2B980184657
:100B3C00A4EB080440EA02409CE729462846BDE89D
:100B4C00F08707FA0EF7CEF1200326FA03F24FEAEC
:100B5C00174CB2FBFCF11FFA87F80CFB112206FABA
:100B6C000EF620FA03F301FB08F933431E0C46EA98
:100B7C000246B14500FA0EF409D9F61901F1FF321B
:100B8C0080F08C80B14540F2898002393E44A6EB5E
:100B9C000906B6FBFCF00CFB106200FB08F99EB2D8
:100BAC0046EA0246B14507D9F61900F1FF3371D276
:100BBC00B1456FD902383E44A6EB090640EA014123
:100BCC008FE7C1F1200722FA07F88B4048EA0303AC
:100BDC0026FA07F44FEA134EB4FBFEF91FFA83FC16
:100BEC000EFB19448E4020FA07F809FB0CFA48EA70
:100BFC0006084FEA184646EA0444A24502FA01F2F6
:100C0C0000FA01F608D9E41809F1FF3044D2A245E4
:100C1C0042D9A9F102091C44A4EB0A04B4FBFEF06E
:100C2C000EFB104400FB0CFC1FFA88F848EA044445
:100C3C00A44507D9E41800F1FF3E29D2A44527D9D1
:100C4C0002381C4440EA0940A0FB0289A4EB0C0CBE
:100C5C00CC45C246CE4615D312D055B1B6EB0A03DD
:100C6C006CEB0E0606FA07F7CB401F43CE402F6005
:100C7C006E600021BDE8F0871046F7E68946DEE697
:100C8C004645EAD2B8EB020A69EB030E0138E4E7F9
:100C9C007046D7E718468FE78146BDE7114676E7E1
:100CAC0002383C4444E7084606E7023A3E442BE748
:100CBC00704700BF80B586B002AF0346FB71FB796D
:100CCC0023F00F03FB73FB791B01BB73FB7B43F01E
:100CDC000C03DBB23B72FB7B43F00803DBB27B7291
:100CEC00BB7B43F00C03DBB2BB72BB7B43F0080352
:100CFC00DBB2FB7207F108026423009304234E213C
:100D0C00034801F007F900BF1037BD4680BD00BF96
:100D1C00A400002080B586B002AF0346FB71FB79BE
:100D2C0023F00F03FB73FB791B01BB73FB7B43F0BD
:100D3C000D03DBB23B72FB7B43F00903DBB27B722E
:100D4C00BB7B43F00D03DBB2BB72BB7B43F00903EF
:100D5C00DBB2FB7207F108026423009304234E21DB
:100D6C00034801F0D7F800BF1037BD4680BD00BF67
:100D7C00A400002080B500AF0120FFF79BFF0A20E4
:100D8C0000F0CEFC00BF80BD80B582B000AF7860B3
:100D9C0039607B68002B02D0012B05D009E03B6841
:100DAC0043F080033B6004E03B6843F0C0033B60CE
:100DBC0000BF3B68DBB21846FFF77CFF00BF08376B
:100DCC00BD4680BD80B500AF322000F0A9FC3020BC
:100DDC00FFF770FF052000F0A3FC3020FFF76AFF3F
:100DEC00012000F09DFC3020FFF764FF0A2000F08A
:100DFC0097FC2020FFF75EFF0A2000F091FC2820D2
:100E0C00FFF758FF012000F08BFC0820FFF752FF82
:100E1C00012000F085FC0120FFF74CFF012000F0C1
:100E2C007FFC012000F07CFC0620FFF743FF012033
:100E3C0000F076FC0C20FFF73DFF00BF80BD80B5B5
:100E4C0082B000AF786006E07B685A1C7A601B7831
:100E5C001846FFF75FFF7B681B78002BF4D100BFAF
:100E6C000837BD4680BD000080B483B000AF034698
:100E7C00FB80084B1B6800225A6200BF054B1B68A5
:100E8C005A6AFB889A42F9D300BF0C37BD4680BC26
:100E9C00704700BF0001002080B588B000AF7860BB
:100EAC000B467B8007F10C0300221A605A609A6093
:100EBC00DA601A617B88FB6000233B6100237B6155
:100ECC0007F10C031946786800F02EFD00BF20379F
:100EDC00BD4680BD80B588B000AF78600B467B8086
:100EEC0007F10C0300221A605A609A60DA601A61EA
:100EFC007B88FB6001233B610023BB6107F10C0382
:100F0C001946786800F010FD00BF2037BD4680BD43
:100F1C0090B589B000AF786007F10C0300221A601D
:100F2C005A609A60DA601A6100210020FFF72CFFEA
:100F3C007868FFF781FA03460C4607F10C001A4655
:100F4C002346074902F048FA07F10C031846FFF74D
:100F5C0076FF4320FFF7DEFE00BF2437BD4690BD71
:100F6C00543C000890B589B000AF786007F10C03D1
:100F7C0000221A605A609A60DA601A61002101201E
:100F8C00FFF702FF7868FFF757FA03460C4607F1A4
:100F9C000C001A462346074902F01EFA07F10C030F
:100FAC001846FFF74CFF2520FFF7B4FE00BF24378F
:100FBC00BD4690BD643C000880B500AF02210D48D1
:100FCC00FFF788FF002202210A4800F052FE4FF47E
:100FDC009660FFF749FF01220221064800F049FE06
:100FEC001420FFF741FF02210248FFF755FF00BF15
:100FFC0080BD00BF0000024080B582B000AF00236E
:10100C00FB712820FFF730FF0221114800F01AFE77
:10101C000346002B0ED15020FFF726FF02210C486F
:10102C0000F010FE0346002B02D00123FB7101E0FF
:10103C00FF23FB7100BF0221054800F003FE0346AD
:10104C00002BF8D1FB7918460837BD4680BD00BF90
:10105C000000024080B582B000AF0023BB7137E0C6
:10106C0000BF02211E4800F0EDFD0346002BF8D016
:10107C002820FFF7F9FE0221194800F0E3FD034692
:10108C00002B0ED1BB79C3F10703012202FA03F343
:10109C005BB2DB435AB297F9073013405BB2FB717A
:1010AC000BE0BB79C3F10703012202FA03F35AB236
:1010BC0097F9073013435BB2FB7100BF022108485C
:1010CC0000F0C0FD0346002BF8D1BB790133BB7196
:1010DC00BB79072BC4D9FB7918460837BD4680BDB0
:1010EC000000024098B500AF00F0ACFA00F0A2F896
:1010FC0000F052F900F0ECF800F018F9404801F05B
:10110C00FBFFFFF75FFE3F48FFF799FE4FF4FA60D5
:10111C0000F006FBFFF72EFE3B4B1B681846FFF753
:10112C00F7FE3A4B1B681846FFF71CFFFFF744FF0E
:10113C00FFF762FF03461A46354B1A70FFF78AFF1A
:10114C0003461A46334B1A70FFF784FF03461A46C0
:10115C00314B1A70FFF77EFF03461A462F4B1A705D
:10116C00FFF778FF03461A462D4B1A70FFF772FFF4
:10117C0003469AB22B4B1A80284B1B781B021AB2CF
:10118C00274B1B781BB213431BB29AB2264B1A8007
:10119C00204B1B781B021AB21F4B1B781BB213433C
:1011AC001BB29AB2214B1A801F4B1B881846FFF7B3
:1011BC0031F94FF000021E4BFFF7BCFA03460C4608
:1011CC0018462146FFF79EFB02460F4B1A60174B41
:1011DC001B881846FFF71EF94FF00002144BFFF75F
:1011EC00A9FA03460C4618462146FFF78BFB02462C
:1011FC00064B1A6040F6B83000F092FA8CE700BF4C
:10120C0000010020703C00088C00002090000020A1
:10121C0094000020440100204001002041010020E6
:10122C00FA00002042010020FC000020F800002001
:10123C000000244080B592B000AF07F114033422B3
:10124C000021184602F0C0F83B4600221A605A6092
:10125C009A60DA601A611D4A1C4B1B6823F4C05358
:10126C0043F40063136002237B6101233B62102370
:10127C007B620223BB630023FB634FF400233B64BC
:10128C004FF400037B6407F11403184601F048F98E
:10129C000346002B01D000F0E5F80F233B6003233D
:1012AC007B600023BB600023FB6000233B613B465B
:1012BC000121184601F064FC0346002B01D000F01C
:1012CC00D1F800BF4837BD4680BD00BF007000405C
:1012DC0080B500AF124B134A1A60114B124A5A6078
:1012EC000F4B00229A600E4B0022DA600C4B4FF42D
:1012FC0080421A610A4B00225A61094B00229A6102
:10130C00074B0022DA61064B00221A62044800F0F7
:10131C00C9FC0346002B01D000F0A4F800BF80BD2F
:10132C00A400002000540040A086010080B582B0CB
:10133C0000AF3B4600221A605A60154B154A1A60E2
:10134C00134B00225A60124B00229A60104B4FF63E
:10135C00FF72DA600E4B00225A610D4801F08CFED0
:10136C000346002B01D000F07DF800233B600023E6
:10137C007B603B461946064801F078FF0346002B7C
:10138C0001D000F06FF800BF0837BD4680BD00BF2C
:10139C00000100200010004080B58AB000AF07F1BA
:1013AC00140300221A605A609A60DA601A612A4AA1
:1013BC00294BDB6943F00403D361274BDB6903F052
:1013CC0004033B613B69244A234BDB6943F0200354
:1013DC00D361214BDB6903F02003FB60FB681E4AE1
:1013EC001D4BDB6943F00103D3611B4BDB6903F03D
:1013FC000103BB60BB68184A174BDB6943F002035F
:10140C00D361154BDB6903F002037B607B68002220
:10141C000221124800F02DFC4FF400537B614FF475
:10142C008813BB610023FB6107F1140319460C48B8
:10143C0000F07AFA02237B610123BB610023FB617C
:10144C0000233B6207F114031946044800F06CFAC0
:10145C0000BF2837BD4680BD003802400000024066
:10146C000008024080B400AF72B6FEE780B584B0CD
:10147C0000AF154A144B5B6A43F000435362124BA6
:10148C005B6A03F00043FB60FB680F4A0E4B1B6A60
:10149C0043F0010313620C4B1B6A03F00103BB60A6
:1014AC00BB68094A084B5B6A43F080535362064B96
:1014BC005B6A03F080537B607B68072000F000FAC6
:1014CC0000BF1037BD4680BD0038024080B58AB0E1
:1014DC0000AF786007F1140300221A605A609A601A
:1014EC00DA601A617B681B68174A934228D1174A45
:1014FC00164BDB6943F00203D361144BDB6903F039
:10150C0002033B613B694FF440737B611223BB6167
:10151C000023FB6103233B6204237B6207F114036A
:10152C0019460B4800F000FA084A084B5B6A43F472
:10153C0000135362054B5B6A03F40013FB60FB68FA
:10154C0000BF2837BD4680BD005400400038024023
:10155C000004024080B485B000AF78607B681B68E3
:10156C00094A93420BD1094A084B5B6A43F01003BA
:10157C005362064B5B6A03F01003FB60FB6800BF11
:10158C001437BD4680BC7047001000400038024044
:10159C0080B400AFFEE780B400AFFEE780B400AFCC
:1015AC00FEE780B400AFFEE780B400AFFEE780B486
:1015BC0000AF00BFBD4680BC704780B400AF00BF19
:1015CC00BD4680BC704780B400AF00BFBD4680BC38
:1015DC00704780B500AF00F087F800BF80BD0000F9
:1015EC0080B584B000AF7860114B1B68002B02D122
:1015FC000F4B104A1A600E4B1B68FB600C4B1A68A1
:10160C007B6813446A46934207D901F0B3FE024645
:10161C000C2313604FF0FF3306E0054B1A687B6810
:10162C001344034A1360FB6818461037BD4680BD4F
:10163C00980000205001002080B400AF00BFBD46D0
:10164C0080BC704780B582B000AF0023FB710320D3
:10165C0000F036F9002000F00DF80346002B02D004
:10166C000123FB7101E0FFF701FFFB7918460837F6
:10167C00BD4680BD80B584B000AF78600023FB739D
:10168C00164B1B68002B22D0154B1A68134B1B688A
:10169C004FF47A71B1FBF3F3B2FBF3F3184600F09D
:1016AC0036F90346002B0FD17B680F2B09D800228B
:1016BC0079684FF0FF3000F00EF90A4A7B6813602E
:1016CC0007E00123FB7304E00123FB7301E001231A
:1016DC00FB73FB7B18461037BD4680BD080000200D
:1016EC00000000200400002080B400AF054B1A68F5
:1016FC00054B1B681344034A136000BFBD4680BCF6
:10170C00704700BF480100200800002080B400AFE3
:10171C00024B1B681846BD4680BC70474801002030
:10172C0080B584B000AF7860FFF7F0FFB8607B68DD
:10173C00FB60FB68B3F1FF3F04D0094B1B68FA68F0
:10174C001344FB6000BFFFF7E1FF0246BB68D21AEF
:10175C00FB689A42F7D300BF1037BD4680BD00BF6F
:10176C000800002080B485B000AF78607B6803F07F
:10177C000703FB600C4BDB68BB60BA684FF6FF03DA
:10178C001340BB60FB681A02BB68134343F0BF6392
:10179C0043F40033BB60044ABB68D36000BF14370A
:1017AC00BD4680BC704700BF00ED00E080B400AFC8
:1017BC00044BDB681B0A03F007031846BD4680BCCC
:1017CC00704700BF00ED00E080B483B000AF03466B
:1017DC003960FB7197F90730002B0ADB0D4997F93B
:1017EC0007303A68D2B21201D2B20B4483F800230C
:1017FC000AE00949FB7903F00F03043B3A68D2B2C3
:10180C001201D2B20B441A7600BF0C37BD4680BC15
:10181C00704700BF00E100E000ED00E080B489B04B
:10182C0000AFF860B9607A60FB6803F00703FB61F6
:10183C00FB69C3F10703042B28BF0423BB61FB69BD
:10184C000433062B02D9FB69033B00E000237B61C8
:10185C000122BB6902FA03F35A1EBB681A407B696A
:10186C009A4001217B6901FA03F3591E7B680B40F6
:10187C00134318462437BD4680BC704780B582B0F0
:10188C0000AF78607B68013BB3F1807F01D301230B
:10189C000FE00A4A7B68013B53600F214FF0FF3089
:1018AC00FFF792FF054B00229A60044B07221A6047
:1018BC00002318460837BD4680BD00BF10E000E08D
:1018CC0080B582B000AF78607868FFF74BFF00BF3F
:1018DC000837BD4680BD80B586B000AF0346B96001
:1018EC007A60FB7300237B61FFF760FF78617A6895
:1018FC00B9687869FFF792FF024697F90F301146E5
:10190C001846FFF761FF00BF1837BD4680BD80B594
:10191C0082B000AF78607868FFF7B0FF03461846D6
:10192C000837BD4680BD000080B487B000AF78603A
:10193C00396000237B610023FB6000233B6160E185
:10194C003B681A6801217B6901FA03F31340FB60C1
:10195C00FB68002B00F052813B685B6803F00303CB
:10196C00012B05D03B685B6803F00303022B30D1DD
:10197C007B689B683B617B695B00032202FA03F383
:10198C00DB433A6913403B613B68DA687B695B0077
:10199C0002FA03F33A6913433B617B683A699A6034
:1019AC007B685B683B6101227B6902FA03F3DB43D2
:1019BC003A6913403B613B685B681B0903F0010209
:1019CC007B6902FA03F33A6913433B617B683A691A
:1019DC005A603B685B6803F00303032B17D07B68EA
:1019EC00DB683B617B695B00032202FA03F3DB4398
:1019FC003A6913403B613B689A687B695B0002FA69
:101A0C0003F33A6913433B617B683A69DA603B68DC
:101A1C005B6803F00303022B23D17B69DA087B6834
:101A2C00083253F822303B617B6903F007039B00BB
:101A3C000F2202FA03F3DB433A6913403B613B6824
:101A4C001A697B6903F007039B0002FA03F33A69F6
:101A5C0013433B617B69DA087B680832396943F8C8
:101A6C0022107B681B683B617B695B00032202FAD6
:101A7C0003F3DB433A6913403B613B685B6803F05B
:101A8C0003027B695B0002FA03F33A6913433B617F
:101A9C007B683A691A603B685B6803F44033002B3F
:101AAC0000F0AC805D4A5D4B1B6A43F0010313628E
:101ABC005A4B1B6A03F00103BB60BB68584A7B6935
:101ACC009B08023352F823303B617B6903F003031C
:101ADC009B000F2202FA03F3DB433A6913403B618C
:101AEC007B68504A934225D07B684F4A93421FD063
:101AFC007B684E4A934219D07B684D4A934213D06F
:101B0C007B684C4A93420DD07B684B4A934207D07A
:101B1C007B684A4A934201D106230CE007230AE072
:101B2C00052308E0042306E0032304E0022302E07B
:101B3C00012300E000237A6902F003029200934033
:101B4C003A6913433B6136497B699B0802333A6916
:101B5C0041F823203A4B1B683B61FB68DB433A6935
:101B6C0013403B613B685B6803F48033002B03D06C
:101B7C003A69FB6813433B61314A3B691360304B54
:101B8C005B683B61FB68DB433A6913403B613B6834
:101B9C005B6803F40033002B03D03A69FB681343F2
:101BAC003B61274A3B695360254B9B683B61FB6853
:101BBC00DB433A6913403B613B685B6803F4801379
:101BCC00002B03D03A69FB6813433B611C4A3B6909
:101BDC0093601B4BDB683B61FB68DB433A6913404A
:101BEC003B613B685B6803F40013002B03D03A693C
:101BFC00FB6813433B61124A3B69D3607B69013339
:101C0C007B613B681A687B6922FA03F3002B7FF433
:101C1C0097AE00BF1C37BD4680BC704700380240F1
:101C2C000000014000000240000402400008024095
:101C3C00000C024000100240001402400018024048
:101C4C000004014080B485B000AF78600B467B8007
:101C5C007B681A697B881340002B02D00123FB732D
:101C6C0001E00023FB73FB7B18461437BD4680BC98
:101C7C00704780B483B000AF78600B467B8013460E
:101C8C007B707B78002B03D07A887B689A6103E0A9
:101C9C007B881A047B689A6100BF0C37BD4680BCF8
:101CAC007047000090B585B000AF78607B68002B62
:101CBC0001D101231FE17B6893F83D30DBB2002B8F
:101CCC0006D17B68002283F83C207868FFF7FEFB86
:101CDC007B68242283F83D207B681B687A68126835
:101CEC00126822F001021A607B681B687A6812681D
:101CFC00126842F400421A607B681B687A681268AA
:101D0C00126822F400421A6001F042F9F8607B6814
:101D1C005B687B4A934207D8FB687A4A934294BF2C
:101D2C0001230023DBB206E0FB68774A934294BFA1
:101D3C0001230023DBB2002B01D00123DBE0FB6885
:101D4C00724AA2FB03239B0CBB607B681B687A68FE
:101D5C001268526822F03F01BA680A435A607B68E5
:101D6C001A687B681B681B6A23F03F017B685B6801
:101D7C006348834202D8BB68013309E0BB684FF467
:101D8C00967000FB03F36248A0FB03039B0901332D
:101D9C000B4313627B6818687B681B68DB6923F450
:101DAC004F4222F0FF027B685B6855498B420DD88D
:101DBC00FB68591E7B685B685B00B1FBF3F3013376
:101DCC00C3F30B03042B38BF04234FE07B689B68E1
:101DDC00002B11D1FB685C1E7B6859680B465B00BD
:101DEC000B44B4FBF3F30133C3F30B03002B0CBF15
:101DFC0001230023DBB212E0FB685C1E7B68596890
:101E0C000B469B000B4499000B44B4FBF3F30133DA
:101E1C00C3F30B03002B0CBF01230023DBB2002BFD
:101E2C0001D0012322E07B689B68002B0ED1FB685C
:101E3C005C1E7B6859680B465B000B44B4FBF3F3E8
:101E4C000133C3F30B0343F400430FE0FB685C1E48
:101E5C007B6859680B469B000B4499000B44B4FB00
:101E6C00F3F30133C3F30B0343F440431343C36154
:101E7C007B681B687A681268126822F0C0017A6865
:101E8C00D0697A68126A02430A431A607B681A683E
:101E9C007B681B689B6823F4034323F0FF0379687A
:101EAC0008697968C96801430B4393607B681B68B8
:101EBC007A681268D26822F0FF017A6850697A68F1
:101ECC00926902430A43DA607B681B687A6812687D
:101EDC00126842F001021A607B6800221A647B6867
:101EEC00202283F83D207B6800221A637B68002245
:101EFC0083F83E20002318461437BD4690BD00BF22
:101F0C00A08601007F841E00FF083D0083DE1B437A
:101F1C00D34D621080B588B002AFF8607A601A4673
:101F2C000B467B8113463B81FFF7F0FB7861FB6826
:101F3C0093F83D30DBB2202B40F0E0807B690093BE
:101F4C00192301227049F86800F064F90346002B4C
:101F5C0001D00223D3E0FB6893F83C30012B01D174
:101F6C000223CCE0FB68012283F83C20FB681B6851
:101F7C001B6803F00103012B07D0FB681B68FA6890
:101F8C001268126842F001021A60FB681B68FA685A
:101F9C001268126822F400621A60FB68212283F82E
:101FAC003D20FB68102283F83E20FB6800221A6457
:101FBC00FB687A685A62FB683A895A85FB685B8DC4
:101FCC009AB2FB681A85FB68504ADA6279897B6998
:101FDC003A6AF86800F09CF80346002B01D0012304
:101FEC008DE000233B61FB681B685B693B61FB6810
:101FFC001B689B693B613B6966E07A69396AF868E2
:10200C0000F0DEF90346002B0DD0FB681B6C042B93
:10201C0007D1FB681B68FA681268126842F40072F8
:10202C001A6001236BE0FB681B68FA68526A12782D
:10203C001A61FB685B6A5A1CFB685A62FB685B8D11
:10204C009BB2013B9AB2FB685A85FB681B8D013B26
:10205C009AB2FB681A85FB681B685B6903F0040382
:10206C00042B1BD1FB681B8D002B17D0FB681B6846
:10207C00FA68526A12781A61FB685B6A5A1CFB6830
:10208C005A62FB685B8D9BB2013B9AB2FB685A8526
:10209C00FB681B8D013B9AB2FB681A857A69396A19
:1020AC00F86800F0CEF90346002B0DD0FB681B6CD2
:1020BC00042B07D1FB681B68FA681268126842F49B
:1020CC0000721A6001231AE0FB681B8D002B94D15F
:1020DC00FB681B68FA681268126842F400721A6096
:1020EC00FB68202283F83D20FB68002283F83E2009
:1020FC00FB68002283F83C20002300E002231846F2
:10210C001837BD4680BD00BF020010000000FFFF65
:10211C0080B588B002AFF8607A603B600B467B817B
:10212C00FB68DB6A7B617B69082B06D07B69012B22
:10213C0003D07B6913F5803F08D1FB681B68FA68F4
:10214C001268126842F480721A600BE0FB681B6B19
:10215C00122B07D1FB681B68FA681268126842F4EC
:10216C0080721A603B6800937B6800224FF001116B
:10217C00F86800F04FF80346002B0DD0FB681B6885
:10218C001B6803F48073B3F5807F03D1FB684FF4B5
:10219C0000721A64032334E0FB681B69B3F5804FAB
:1021AC0007D1FB681B687A89D2B202F0FE021A6171
:1021BC001BE0FB681B687A89D211D2B202F00602CE
:1021CC00D2B262F00F02D2B21A613B687A680F4940
:1021DC00F86800F076F80346002B01D0012310E0DC
:1021EC00FB681B687A89D2B21A613B687A68084925
:1021FC00F86800F066F80346002B01D0012300E0DC
:10220C00002318461837BD4680BD00BF08000100EA
:10221C000200010080B584B000AFF860B9603B608B
:10222C001346FB7125E03B68B3F1FF3F21D0FFF76C
:10223C006DFA0246BB69D21A3B689A4202D83B68D7
:10224C00002B16D1FB6800221A63FB68202283F84E
:10225C003D20FB68002283F83E20FB681B6C43F09A
:10226C002002FB681A64FB68002283F83C200123DF
:10227C0023E0BB681B0CDBB2012B0DD1FB681B6888
:10228C005B69DA43BB6813409BB2002B0CBF012384
:10229C000023DBB21A460CE0FB681B689B69DA432F
:1022AC00BB6813409BB2002B0CBF01230023DBB295
:1022BC001A46FB799A42B6D0002318461037BD4611
:1022CC0080BD80B584B000AFF860B9607A603B60C7
:1022DC0051E0FB681B685B6903F48063B3F5806FA6
:1022EC0023D1FB681B68FA681268126842F400720A
:1022FC001A60FB681B686FF480625A61FB680022ED
:10230C001A63FB68202283F83D20FB68002283F8C7
:10231C003E20FB681B6C43F00402FB681A64FB68EC
:10232C00002283F83C20012346E07B68B3F1FF3F99
:10233C0021D0FFF7EBF902463B68D21A7B689A4230
:10234C0002D87B68002B16D1FB6800221A63FB684D
:10235C00202283F83D20FB68002283F83E20FB6896
:10236C001B6C43F02002FB681A64FB68002283F8A4
:10237C003C20012320E0BB681B0CDBB2012B0CD1F1
:10238C00FB681B685B69DA43BB6813409BB2002B8C
:10239C0014BF01230023DBB20BE0FB681B689B69B5
:1023AC00DA43BB6813409BB2002B14BF01230023FC
:1023BC00DBB2002B8DD1002318461037BD4680BDF3
:1023CC0080B584B000AFF860B9607A602DE0F86831
:1023DC0000F078F80346002B01D001232DE0BB68F8
:1023EC00B3F1FF3F21D0FFF791F902467B68D21A77
:1023FC00BB689A4202D8BB68002B16D1FB6800223E
:10240C001A63FB68202283F83D20FB68002283F8C6
:10241C003E20FB681B6C43F02002FB681A64FB68CF
:10242C00002283F83C20012307E0FB681B685B69F2
:10243C0003F08003802BCAD1002318461037BD4609
:10244C0080BD80B584B000AFF860B9607A602DE0D3
:10245C00F86800F037F80346002B01D001232DE07B
:10246C00BB68B3F1FF3F21D0FFF750F902467B6800
:10247C00D21ABB689A4202D8BB68002B16D1FB68F3
:10248C0000221A63FB68202283F83D20FB6800229F
:10249C0083F83E20FB681B6C43F02002FB681A6437
:1024AC00FB68002283F83C20012307E0FB681B68D3
:1024BC005B6903F00403042BCAD1002318461037C0
:1024CC00BD4680BD80B483B000AF78607B681B686C
:1024DC005B6903F48063B3F5806F1BD17B681B6869
:1024EC006FF480625A617B6800221A637B68202239
:1024FC0083F83D207B68002283F83E207B681B6CB0
:10250C0043F004027B681A647B68002283F83C2049
:10251C00012300E0002318460C37BD4680BC7047F1
:10252C0080B588B000AF78607B68002B01D10123A7
:10253C001DE3944B9B6803F00C03BB61914B9B68B0
:10254C0003F480337B617B681B6803F00103002B71
:10255C007BD0BB69082B06D0BB690C2B0FD17B69D8
:10256C00B3F5803F0BD1874B1B6803F40033002B72
:10257C006AD07B685B68002B66D10123F7E27B682D
:10258C005B68012B06D17F4A7E4B1B6843F480337A
:10259C0013602DE07B685B68002B0CD1794A794B7A
:1025AC001B6823F480331360764A764B1B6823F444
:1025BC00802313601CE07B685B68052B0CD1714A8F
:1025CC00704B1B6843F4802313606E4A6D4B1B6881
:1025DC0043F4803313600BE06A4A6A4B1B6823F4A4
:1025EC0080331360674A674B1B6823F480231360A6
:1025FC007B685B68002B13D0FFF788F8386108E024
:10260C00FFF784F802463B69D31A642B01D90323E4
:10261C00ADE25C4B1B6803F40033002BF0D014E0EC
:10262C00FFF774F8386108E0FFF770F802463B6971
:10263C00D31A642B01D9032399E2524B1B6803F480
:10264C000033002BF0D100E000BF7B681B6803F067
:10265C000203002B5AD0BB69042B05D0BB690C2B91
:10266C0019D17B69002B16D1464B1B6803F0020372
:10267C00002B05D07B68DB68012B01D0012376E2AF
:10268C004049404B5B6823F4F8527B681B691B0282
:10269C0013434B603AE07B68DB68002B20D03A4B4D
:1026AC0001221A60FFF732F8386108E0FFF72EF8C4
:1026BC0002463B69D31A022B01D9032357E2314B53
:1026CC001B6803F00203002BF0D02E492D4B5B68E6
:1026DC0023F4F8527B681B691B0213434B6015E013
:1026EC00294B00221A60FFF711F8386108E0FFF758
:1026FC000DF802463B69D31A022B01D9032336E2AB
:10270C00204B1B6803F00203002BF0D17B681B6885
:10271C0003F01003002B00F0B880BB69002B70D1C4
:10272C00184B1B6803F40073002B05D07B689B6966
:10273C00002B01D101231AE27B681A6A114B5B68EA
:10274C0003F460439A4221D97B681B6A184600F057
:10275C0033FC0346002B01D0012308E20949094B45
:10276C005B6823F460427B681B6A13434B6005492A
:10277C00044B5B6823F07F427B68DB691B061343C9
:10278C004B6020E00038024000004742A449A44BB3
:10279C005B6823F460427B681B6A13434B60A0495F
:1027AC009F4B5B6823F07F427B68DB691B061343FE
:1027BC004B607B681B6A184600F0FEFB0346002B3F
:1027CC0001D00123D3E17B681B6A5B0B01334FF40F
:1027DC00004202FA03F3924A9268120902F00F02C5
:1027EC0090498A5CD340904A1360904B1B68184602
:1027FC00FEF740FF0346FB73FB7B002B45D0FB7BB6
:10280C00B5E17B689B69002B29D0894B01221A60AA
:10281C00FEF77CFF386108E0FEF778FF02463B6963
:10282C00D31A022B01D90323A1E17D4B1B6803F4BE
:10283C000073002BF0D07A49794B5B6823F460422B
:10284C007B681B6A13434B607549754B5B6823F0BF
:10285C007F427B68DB691B0613434B6015E0744BAE
:10286C0000221A60FEF752FF386108E0FEF74EFFB7
:10287C0002463B69D31A022B01D9032377E1684B3B
:10288C001B6803F40073002BF0D17B681B6803F00A
:10289C000803002B30D07B685B69002B16D0654B8E
:1028AC0001221A60FEF732FF386108E0FEF72EFFB6
:1028BC0002463B69D31A022B01D9032357E1584B2B
:1028CC005B6B03F00203002BF0D015E0594B002298
:1028DC001A60FEF71BFF386108E0FEF717FF02468F
:1028EC003B69D31A022B01D9032340E14C4B5B6BA0
:1028FC0003F00203002BF0D17B681B6803F0040388
:10290C00002B00F0B5800023FB77454B5B6A03F08E
:10291C008053002B0DD1424A414B5B6A43F08053EC
:10292C0053623F4B5B6A03F08053BB60BB6801236F
:10293C00FB77414B1B6803F48073002B18D13E4A84
:10294C003D4B1B6843F480731360FEF7DFFE386168
:10295C0008E0FEF7DBFE02463B69D31A642B01D973
:10296C00032304E1344B1B6803F48073002BF0D079
:10297C007B689B68012B06D1294A294B5B6B43F47E
:10298C00807353632DE07B689B68002B0CD1244A29
:10299C00234B5B6B23F480735363214A204B5B6B9B
:1029AC0023F4806353631CE07B689B68052B0CD17C
:1029BC001B4A1B4B5B6B43F480635363184A184BE5
:1029CC005B6B43F4807353630BE0154A144B5B6BE6
:1029DC0023F480735363124A114B5B6B23F48063B3
:1029EC0053637B689B68002B15D0FEF78FFE386114
:1029FC000AE0FEF78BFE02463B69D31A41F288329D
:102A0C00934201D90323B2E0054B5B6B03F40073D3
:102A1C00002BEED023E0FEF779FE386119E000BF01
:102A2C0000380240943C0008000000200400002004
:102A3C00200047428006474200700040FEF766FEC9
:102A4C0002463B69D31A41F28832934201D90323DF
:102A5C008DE0494B5B6B03F40073002BEED1FB7FD5
:102A6C00012B05D1444A444B5B6A23F080535362DB
:102A7C007B685B6A002B79D0BB690C2B56D07B68CA
:102A8C005B6A022B3BD13D4B00221A60FEF73EFEE7
:102A9C00386108E0FEF73AFE02463B69D31A022B76
:102AAC0001D9032363E0344B1B6803F00073002B44
:102ABC00F0D13148304B9B6823F47D027B68996AD6
:102ACC007B68DB6A19437B681B6B0B431343836086
:102ADC002A4B01221A60FEF719FE386108E0FEF756
:102AEC0015FE02463B69D31A022B01D903233EE0A3
:102AFC00214B1B6803F00073002BF0D036E01F4B0A
:102B0C0000221A60FEF702FE386108E0FEF7FEFDB7
:102B1C0002463B69D31A022B01D9032327E0164B3B
:102B2C001B6803F00073002BF0D11FE07B685B6A1D
:102B3C00012B01D101231AE00F4B9B687B617B6950
:102B4C0003F480327B689B6A9A420DD17B6903F453
:102B5C0070127B68DB6A9A4206D17B6903F44002EF
:102B6C007B681B6B9A4201D0012300E000231846BE
:102B7C002037BD4680BD00BF003802406000474290
:102B8C0080B584B000AF786039607B68002B01D1D0
:102B9C0001231AE18F4B1B6803F001023B689A4238
:102BAC0019D23B68012B05D18A4A8A4B1B6843F02A
:102BBC00040313608749874B1B6823F001023B68B1
:102BCC0013430B60834B1B6803F001023B689A4272
:102BDC0001D00123F9E07B681B6803F00203002B92
:102BEC0008D07D497C4B9B6823F0F0027B689B6886
:102BFC0013438B607B681B6803F00103002B00F010
:102C0C008E807B685B68022B07D1734B1B6803F4C7
:102C1C000033002B21D10123D7E07B685B68032BA9
:102C2C0007D16D4B1B6803F00073002B15D10123EA
:102C3C00CBE07B685B68012B07D1674B1B6803F00B
:102C4C000203002B09D10123BFE0634B1B6803F483
:102C5C000073002B01D10123B7E05F495E4B9B68E9
:102C6C0023F003027B685B6813438B60FEF74EFD19
:102C7C00F8607B685B68022B12D10AE0FEF746FD18
:102C8C000246FB68D31A41F28832934201D90323DE
:102C9C009BE0514B9B6803F00C03082BEED13EE0FC
:102CAC007B685B68032B12D10AE0FEF72FFD02460E
:102CBC00FB68D31A41F28832934201D9032384E092
:102CCC00454B9B6803F00C030C2BEED127E07B6883
:102CDC005B68012B1DD10AE0FEF718FD0246FB686C
:102CEC00D31A41F28832934201D903236DE03A4B57
:102CFC009B6803F00C03042BEED110E0FEF706FDED
:102D0C000246FB68D31A41F28832934201D903235D
:102D1C005BE0314B9B6803F00C03002BEED12D4B89
:102D2C001B6803F001023B689A4219D93B68012BDE
:102D3C0005D1284A274B1B6843F00403136025492F
:102D4C00244B1B6823F001023B6813430B60214B9F
:102D5C001B6803F001023B689A4201D0012334E066
:102D6C007B681B6803F00403002B08D01A491A4B2C
:102D7C009B6823F4E0627B68DB6813438B607B68A1
:102D8C001B6803F00803002B09D01349124B9B68F6
:102D9C0023F460527B681B69DB0013438B6000F0EB
:102DAC0023F801460C4B9B681B0903F00F030B4ADD
:102DBC00D35C21FA03F30A4A13600A4B1B681846CA
:102DCC00FEF758FC0346FB72FB7A18461037BD46DB
:102DDC0080BD00BF003C024000380240943C00081B
:102DEC0000000020040000202DE9F04F91B000AF4E
:102DFC005E4B9B687B637B6B03F00C03082B07D04B
:102E0C000C2B08D0042B40F09D80594BBB63A7E0E2
:102E1C00584BBB63A4E07B6B9B0C03F00F02564B2F
:102E2C009B5C3B637B6B9B0D03F003030133FB62E9
:102E3C004E4B9B6803F48033002B45D03B6B1946FB
:102E4C004FF000020B46144660017862786A40EA43
:102E5C00D36078625B013B62D7E908345B1A64EBA0
:102E6C0002044FEA841949EA93694FEA8318B8EBD4
:102E7C00030869EB04094FEAC903FB61FB6943EAE8
:102E8C005873FB614FEAC803BB61D7E9068918EB9D
:102E9C00010849EB02094FEA49237B617B6943EA4C
:102EAC00D8537B614FEA48233B61D7E904894046FC
:102EBC004946FB6A4FF000041A462346FDF772FDA3
:102ECC0003460C46FB633AE03B6B19464FF000029D
:102EDC000B4614466001F860F86840EAD360F8606D
:102EEC005B01BB60D7E902345B1A64EB0204A601F8
:102EFC0046EA93669D01ED1A66EB0406F3007B60CF
:102F0C007B6843EA55737B60EB003B6097E860009D
:102F1C006D1846EB02064FEA862B4BEA955B4FEA9F
:102F2C00852A55465E4628463146FB6A4FF000041A
:102F3C001A462346FDF736FD03460C46FB63FB6B36
:102F4C00BB630DE0094B5B685B0B03F00703BB62D3
:102F5C00BB6A01334FF4004202FA03F3BB6300BFB8
:102F6C00BB6B18464437BD46BDE8F08F00380240B5
:102F7C000024F40000127A00883C000880B400AFF2
:102F8C00024B1B681846BD4680BC704700000020F1
:102F9C0080B500AFFFF7F2FF0146054B9B681B0A9B
:102FAC0003F00703034AD35C21FA03F3184680BDF0
:102FBC0000380240A43C000880B487B000AF7860B1
:102FCC0000233B61294B9B6803F0F003002B2CD1B1
:102FDC00264B5B6A03F08053002B05D0244B1B68F7
:102FEC0003F4C0537B6116E0204A204B5B6A43F02C
:102FFC00805353621D4B5B6A03F08053FB60FB688C
:10300C001B4B1B6803F4C0537B61184A174B5B6A5C
:10301C0023F0805353627B69B3F5C05F05D17B68A5
:10302C00B3F5404F01D101233B613B69012B05D125
:10303C00104A104B1B6843F0040313600D490D4BF1
:10304C001B6823F001023B6913430B60094B1B689F
:10305C0003F001023B699A4201D0012300E00023F6
:10306C0018461C37BD4680BC704700BF0038024074
:10307C0000700040003C024080B582B000AF786028
:10308C007B68002B01D1012331E07B6893F8393048
:10309C00DBB2002B06D17B68002283F838207868DD
:1030AC00FEF758FA7B68022283F839207B681A688D
:1030BC007B6804331946104600F068F87B680122DF
:1030CC0083F83E207B68012283F83A207B6801223A
:1030DC0083F83B207B68012283F83C207B6801222B
:1030EC0083F83D207B68012283F8392000231846A1
:1030FC000837BD4680BD000080B485B000AF786055
:10310C007B6893F83930DBB2012B01D0012332E01C
:10311C007B68022283F839207B681B68B3F1804FEF
:10312C000ED07B681B68164A934209D07B681B68DB
:10313C00144A934204D07B681B68134A934211D102
:10314C007B681B689B6803F00703FB60FB68062B1E
:10315C0010D07B681B687A681268126842F0010212
:10316C001A6007E07B681B687A681268126842F084
:10317C0001021A60002318461437BD4680BC704704
:10318C0000040040000800400008014080B485B0F5
:10319C0000AF786039607B681B68FB607B68B3F1BB
:1031AC00804F0FD07B682B4A93420BD07B682A4A06
:1031BC00934207D07B68294A934203D07B68284A04
:1031CC00934208D1FB6823F07003FB603B685B689B
:1031DC00FA681343FB607B68B3F1804F17D07B68B0
:1031EC001C4A934213D07B681B4A93420FD07B68D6
:1031FC001A4A93420BD07B68194A934207D07B68DA
:10320C00184A934203D07B68174A934208D1FB6853
:10321C0023F44073FB603B68DB68FA681343FB6084
:10322C00FB6823F080023B681B691343FB607B68DF
:10323C00FA681A603B689A687B68DA623B681A68BD
:10324C007B689A627B6801225A6100BF1437BD46C5
:10325C0080BC70470004004000080040000C004097
:10326C0000080140000C01400010014080B485B002
:10327C0000AF786039607B6893F83830012B01D14E
:10328C00022346E07B68012283F838207B68022207
:10329C0083F839207B681B685B68FB607B681B6864
:1032AC009B68BB60FB6823F07003FB603B681B688A
:1032BC00FA681343FB607B681B68FA685A607B688A
:1032CC001B68B3F1804F0ED07B681B68134A934286
:1032DC0009D07B681B68124A934204D07B681B6838
:1032EC00104A93420CD1BB6823F08003BB603B684F
:1032FC005B68BA681343BB607B681B68BA689A60EA
:10330C007B68012283F839207B68002283F83820FF
:10331C00002318461437BD4680BC7047000400409B
:10332C0000080040000801400C480D490D4A0023DC
:10333C0002E0D458C4500433C4188C42F9D30A4A5E
:10334C000A4C002301E013600432A242FBD3FEF7C7
:10335C0073F900F015F8FDF7C5FE7047000000206A
:10336C0070000020F03C000870000020500100208C
:10337C00FEE70000014B1868704700BF0C000020EE
:10338C0070B500250C4E0D4CA41BA410A54209D100
:10339C0000F04EFC00250A4E0A4CA41BA410A542BA
:1033AC0005D170BD56F8253098470135EEE756F833
:1033BC00253098470135F2E7E83C0008E83C000866
:1033CC00E83C0008EC3C000803460244934200D160
:1033DC00704703F8011BF9E70EB44FF4027100B506
:1033EC009CB0ADF814106FF00041049107914FF6AA
:1033FC00FF711DAB02900690084853F8042BADF8F2
:10340C001610006802A9019300F066F80022029BD6
:10341C001A701CB05DF804EB03B070470C00002070
:10342C002DE9F0478E6882469E420C46914698469E
:10343C0035D88A8912F4906F31D002232568096936
:10344C006F1A656905EB450595FBF3F508F101036A
:10345C003B449D4238BF1D46530531D5294600F0EB
:10346C0047FB064650B90C23CAF80030A3894FF02D
:10347C00FF3043F04003A381BDE8F0873A46216951
:10348C0000F0C4FAA38923F4906343F08003A38172
:10349C0026613E44266046466561ED1BA5604645A7
:1034AC0028BF464649463246206800F0BAFAA3685F
:1034BC0000209B1BA36023681E442660BDE8F08798
:1034CC002A4600F073FB06460028E1D121695046DC
:1034DC0000F0C2FAC7E700002DE9F04F9DB003934E
:1034EC008B8980461C060D4616460FD50B696BB9A9
:1034FC00402100F0FDFA2860286128B90C23C8F897
:10350C0000304FF0FF30C4E040236B61002309937F
:10351C0020238DF8293030234FF0010B8DF82A3001
:10352C0037463C4614F8013B002B3CD1B7EB060A5E
:10353C000BD05346324629464046FFF771FF013007
:10354C0000F0A280099B534409933B78002B00F0B8
:10355C009B8000234FF0FF32049307930592069350
:10356C008DF853301A9305222178504800F040FA18
:10357C00671C049BD8B9D90644BF20228DF8532070
:10358C001A0744BF2B228DF8532022782A2A16D0F2
:10359C0000210A20079A27463B780134303B092B3F
:1035AC0050D9C9B111E0252BC0D02746B9E73F4A05
:1035BC003C46801A0BFA00F018430490D3E7039AA8
:1035CC00111D12680391002A01DB079204E052429C
:1035DC0043F00203079204933B782E2B0DD17B789A
:1035EC00791C2A2B32D1039B02371A1D1B680392BC
:1035FC00002BB8BF4FF0FF3305932D4C03223978C5
:10360C00204600F0F5F938B14023001B03FA00F016
:10361C00049B0137034304933978062225487E1C0A
:10362C008DF8281000F0E4F9002835D0224BFBB9B6
:10363C00039B073323F0070308330393099B4B4485
:10364C0009936DE700FB02320121A4E700230A2451
:10365C00184605930F463A780131303A092A03D9B6
:10366C00002BCAD00590C8E704FB00200123F1E72A
:10367C0003AB00932A46114B04A94046AFF30080DC
:10368C00B0F1FF3F8146D9D1AB895B063FF539AF2D
:10369C0009981DB0BDE8F08F03AB00932A46074B89
:1036AC0004A9404600F084F8EAE700BFAC3C0008EF
:1036BC00B23C0008B63C0008000000002D340008A5
:1036CC002DE9F04791461F468A680B6906469342DE
:1036DC00B8BF1346C9F8003091F843200C46DDF80A
:1036EC00208012B10133C9F800302368990642BF1B
:1036FC00D9F800300233C9F80030256815F00605FA
:10370C0007D104F1190AE368D9F800209B1A9D42ED
:10371C002ADB94F843302268003318BF0123920649
:10372C002FD404F1430239463046C047013022D031
:10373C002368E56803F00603042B18BF0025D9F8AD
:10374C0000204FF0000908BFAD1AA368226908BF1A
:10375C0025EAE5759342C4BF9B1AED181A344D4502
:10376C001BD10020BDE8F087012352463946304674
:10377C00C047013003D14FF0FF30BDE8F087013571
:10378C00C1E73020E11881F843005A1C94F8451029
:10379C002244023382F84310C3E701232246394600
:1037AC003046C0470130E6D009F10109D7E70000E7
:1037BC002DE9F04317460A7E85B06E2A98460646D8
:1037CC000C460C9B01F1430E00F0BC801AD8632A06
:1037DC002ED00AD8002A00F0C880582A00F08A801F
:1037EC0004F1420584F842202AE0642A01D0692AB7
:1037FC00F6D121681A6811F0800F23D0111D1960C1
:10380C00136827E0732A00F0B48008D86F2A2AD0F6
:10381C00702AE5D10A6842F020020A6003E0752A9A
:10382C0021D0782ADCD178226F4984F8452064E0D5
:10383C001A6801F14205111D1960136884F84230B1
:10384C000123A3E011F0400F02F104011960D7D05D
:10385C00B2F90030002B03DA2D225B4284F84320AE
:10386C0062490A2217E02068196810F0800F03D013
:10387C00081D18600B6806E010F0400F01F1040001
:10388C001860F7D00B886F2A14BF0A2208225749F8
:10389C00002084F843006568002DA560C0F29C8070
:1038AC00206820F004002060002B3FD1002D40F058
:1038BC0095807546082A0BD12368DA0708D5236949
:1038CC0062689A42DEBF302305F8013C05F1FF35F2
:1038DC00AEEB05032361CDF800803B4603AA2146DD
:1038EC003046FFF7EDFE013055D14FF0FF3005B0FB
:1038FC00BDE8F08381F845203C492268186812F035
:10390C00800F00F104051D6001D0036802E055062C
:10391C00FBD50388D00744BF42F0200222601BB9BC
:10392C00226822F0200222601022B1E77546B3FB18
:10393C00F2F002FB1033CB5C05F8013D0346002886
:10394C00F5D1B7E708681A6810F0800F496904D000
:10395C00101D18601368196007E010F0400F02F199
:10396C00040018601368F6D0198000237546236193
:10397C00B1E71A68111D19601568002162682846A4
:10398C0000F036F808B1401B6060636823610023C7
:10399C0084F843309FE723692A4639463046C047AE
:1039AC000130A2D023689B0707D5002504F1190923
:1039BC00E368039A9B1A9D4205DBE068039B9842DF
:1039CC00B8BF184693E701234A4639463046C047EC
:1039DC0001308AD00135EBE7002BA7D10B7804F12D
:1039EC00420584F8423065E7CE3C0008BD3C000837
:1039FC0010B5C9B202449042034601D1002010BD5B
:103A0C001C7801308C42F6D1184610BD10B5431EFF
:103A1C000A44914200D110BD11F8014B03F8014F3B
:103A2C00F7E7884210B501EB020303D8421E994216
:103A3C000CD110BD9842F9D28118D21AD34200D1C0
:103A4C0010BD13F8014D01F8014DF7E711F8014BCA
:103A5C0002F8014FEBE7000038B50546002943D0CA
:103A6C0051F8043C0C1F002BB8BFE41800F0D4F83C
:103A7C001E4A1368104633B9636014602846BDE8CB
:103A8C00384000F0CAB8A3420BD92168621893429F
:103A9C0001BF1A685B685218226063600460EDE72E
:103AAC0013465A680AB1A242FAD919685818A042AA
:103ABC000BD120680144581882421960DED110687D
:103ACC005268014419605A60D8E702D90C232B6064
:103ADC00D4E7206821188A4201BF1168526809187E
:103AEC00216062605C60C9E738BD00BF9C000020AB
:103AFC0070B5CD1C25F0030508350C2D38BF0C25F1
:103B0C00002D064601DBA94203D90C2333600020AB
:103B1C0070BD00F081F8234A1468214691B9224CFB
:103B2C0023681BB9304600F067F820602946304600
:103B3C0000F062F8431C26D10C233046336000F0B1
:103B4C006CF8E4E70B685B1B1AD40B2B0FD90B60DA
:103B5C00CC18CD50304600F060F804F10B00231D5A
:103B6C0020F00700C31A1BD05A42E25070BD8C42A1
:103B7C000BBF63684B681360636018BF0C46E9E7C2
:103B8C000C464968CAE7C41C24F00304A04205D0C3
:103B9C00211A304600F030F80130CDD02560D9E73D
:103BAC0070BD00BF9C000020A0000020F8B50746A7
:103BBC0014460E4621B91146BDE8F840FFF798BFF0
:103BCC0022B9FFF749FF25462846F8BD00F026F834
:103BDC0084420FD921463846FFF78AFF0546002854
:103BEC00F2D031462246FFF711FF31463846FFF737
:103BFC0033FFE9E73546E7E738B50023054C0546C2
:103C0C0008462360FDF7ECFC431C02D1236803B18A
:103C1C002B6038BD4C0100207047704751F8040CE4
:103C2C000028A0F10400BCBF0B58C018704700005E
:103C3C00F8B500BFF8BC08BC9E467047F8B500BF8D
:083C4C00F8BC08BC9E4670475D
:103C540054656D70203A20252E3266200000000045
:103C64005248203A20252E326620000020496E69F1
:103C74007469616C69736174696F6E202E2E2E20D5
:103C840000000000030406080C1018203000000097
:103C940000000000000000000102030406070809F8
:103CA4000000000001020304232D302B2000686C67
:103CB4004C0065666745464700303132333435364B
:103CC4003738394142434445460030313233343584
:0C3CD400363738396162636465660000B1
:083CE00000CDFF7F0100000090
:043CE800610100086E
:043CEC003D0100088E
:103CF00068FF1F00100000000100000010000020FD
:103D000000000000000000000000000000000000B3
:103D100000000000000000000000000000000000A3
:103D20000000000000000000000000000000000093
:103D30000000000000000000000000000000000083
:103D40000000000000000000000000000000000073
:103D50000000000000000000000000000000000063
:040000050800333587
:00000001FF
